:020000040800F2
:100000004826002091040008950200089702000885
:100010009B0200089F020008A302000800000000E5
:10002000000000000000000000000000A70200081F
:10003000A902000800000000AB020008AD020008A1
:10004000AB040008AB040008AB040008AB040008D4
:10005000AB040008AB040008AB040008AB040008C4
:10006000AB040008AB040008AB040008AB040008B4
:10007000AB040008AB040008AB040008AB040008A4
:10008000AB040008AB040008AB040008AB04000894
:10009000AB040008AB040008AB0400084D0C0008DA
:1000A000AB040008AB040008AB040008AB04000874
:1000B000AB040008D9220008CF230008AB040008D5
:1000C000AB040008AB040008AB040008AB04000854
:1000D000AB040008AB040008AB040008AB04000844
:1000E000AB040008AB040008AB040008AB04000834
:1000F0009D1D0008AB040008AB040008AB04000819
:10010000AB040008AB040008AB040008AB04000813
:10011000AB040008AB040008AB040008AB04000803
:10012000AB040008AB040008AB040008AB040008F3
:1001300000F002F800F05AF80AA090E8000C82449F
:100140008344AAF10107DA4501D100F04FF8AFF27C
:10015000090EBAE80F0013F0010F18BFFB1A43F0A5
:10016000010318470C5D00002C5D00000A444FF0AD
:10017000000C10F8013B13F0070408BF10F8014B06
:100180001D1108BF10F8015B641E05D010F8016B4B
:10019000641E01F8016BF9D113F0080F1EBF10F8AF
:1001A000014BAD1C0C1B09D16D1E58BF01F801CBD2
:1001B000FAD505E014F8016B01F8016B6D1EF9D555
:1001C0009142D6D37047000000230024002500266A
:1001D000103A28BF78C1FBD8520728BF30C148BFAA
:1001E0000B6070471FB51FBD10B510BD03F07EFD3D
:1001F0001146FFF7F7FF00F009F803F09CFD03B488
:10020000FFF7F2FF03BC03F09FFD000008B50024D8
:1002100002F0C8F901F0ABFC01F099FB00F024FDFD
:1002200001F0EEFF4FF07C5001F05DFD4FF07C508F
:1002300001F0A2FF02F00AF902F020F923E002F037
:100240001AFE00F040FD42F6EC4084421AD1002430
:100250000D490E48006804F081FF064604F0E2FEF6
:100260000546102004232A4606210090002001F0B4
:10027000F9FB102004230090054806210268402065
:1002800001F0F0FB641CDAE700007A44801F0020D4
:10029000A81F0020704700BFFEE700BFFEE700BFB9
:1002A000FEE700BFFEE770477047704770470000E9
:1002B0000CB50020019000906C48006840F480303C
:1002C0006A49086000BF6948006800F40030009087
:1002D0000198401C0190009818B90198B0F5A06FE2
:1002E000F1D16248006800F4003010B101200090A4
:1002F00001E0002000900098012843D15C4800688C
:1003000040F010005A4908600846006820F00300D9
:1003100008600846006840F00200086053484068E2
:10032000524948600846406848600846406840F4C2
:10033000806048600846406820F47C1048600846A9
:10034000406840F4E81048600846006840F080705B
:10035000086000BF4548006800F000700028F9D030
:100360004248406820F00300404948600846406821
:1003700040F00200486000BF3C48406800F00C00BC
:100380000828F9D10CBD10B5FFF792FF10BD10B5CC
:100390003648006840F0010034490860084640686B
:1003A00034490840314948600846006832490840ED
:1003B0002E4908600846006820F48020086008463E
:1003C000406820F4FE0048604FF41F008860FFF78B
:1003D000DAFF4FF000602949086010BD10B5002118
:1003E00000200022214B5B6803F00C0121B104299D
:1003F00006D0082928D107E0214B224C236027E0B2
:100400001F4B204C236023E0184B5B6803F47010F3
:10041000164B5B6803F48032022303EB904022B951
:10042000194B4343174C23600DE0104B5B6803F4FA
:10043000003323B1144B4343124C236003E0104BB1
:100440004343104C236003E00D4B0E4C236000BF70
:1004500000BF064B5B68C3F303130C4CE15C094B14
:100460001B68CB40074C236010BD00000010024009
:10047000002002400000FFF8FFFFF6FE08ED00E05C
:1004800000127A000000002000093D000400002056
:100490000948804709480047FEE7FEE7FEE7FEE718
:1004A000FEE7FEE7FEE7FEE7FEE7FEE70448054954
:1004B000054A064B704700008F0300083101000811
:1004C0004820002048260020482200204822002002
:1004D00010B50446CC48844208D10121042000F024
:1004E0002DFB0021042000F029FB46E0C748844290
:1004F00008D10121082000F021FB0021082000F094
:100500001DFB3AE0C248844208D10121102000F0CE
:1005100015FB0021102000F011FB2EE0BD488442A5
:1005200008D10121202000F009FB0021202000F04B
:1005300005FB22E0B848844208D10121402000F0A8
:10054000FDFA0021402000F0F9FA16E0B348844299
:1005500008D10121802000F0F1FA0021802000F074
:10056000EDFA0AE0AE48844207D10121801500F07F
:10057000E5FA0021A01500F0E1FA10BD10B5012147
:10058000084600F0DBFA0021012000F0D7FA10BD88
:100590002DE9F0410246002500260020002300241A
:1005A000002791F803C00CF00F0591F803C00CF080
:1005B000100CBCF1000F03D091F802C04CEA050505
:1005C00091F800C0BCF1000F31D0146800202BE07E
:1005D0004FF0010C0CFA00F3B1F800C00CEA03066E
:1005E0009E4220D183004FF00F0C0CFA03F7BC435E
:1005F00005FA03FC4CEA040491F803C0BCF1280F8F
:1006000006D14FF0010C0CFA00FCC2F814C00AE04D
:1006100091F803C0BCF1480F05D14FF0010C0CFA62
:1006200000FCC2F810C0401C0828D1D31460B1F8F7
:1006300000C0BCF1FF0F34DD546800202EE000F153
:10064000080C4FF0010808FA0CF3B1F800C00CEAEE
:1006500003069E4221D183004FF00F0C0CFA03F7E2
:10066000BC4305FA03FC4CEA040491F803C0BCF156
:10067000280F05D100F1080C08FA0CF8C2F8148014
:1006800091F803C0BCF1480F07D100F1080C4FF0FE
:10069000010808FA0CF8C2F81080401C0828CED3D4
:1006A0005460BDE8F0814FF6FF7101800221817036
:1006B0000421C17070470246002093680B400BB1C3
:1006C000012000E0002070470146886880B2704732
:1006D00002460020D3680B400BB1012000E000204F
:1006E00070470146C86880B2704701617047416138
:1006F00070470AB1016100E041617047C160704715
:100700004FF480320A438261816182618269826929
:10071000704702460020434B18684FF6807318401C
:1007200040EA021008433F4B186070473E49C861D9
:100730007047F0B50A46002300240021002500F090
:100740000046B6F1004F02D1364EF16901E0354E58
:100750007168C0F3034583B200F44016B6F5401F3C
:1007600008D121F070612F4E766826F070662D4F0B
:100770007E6012E000F48016B6F5801F06D10326D5
:1007800006FA05F4A14341F0706106E0460D36011A
:1007900003FA06F6B14341F0706122B1460D36010D
:1007A00003FA06F6314300F00046B6F1004F02D1DD
:1007B0001C4EF16101E01B4E7160F0BD30B50022AE
:1007C0008B071C0F0F2303FA04F2164B08338C100F
:1007D00053F824309343134C08348D1044F82530DB
:1007E00023468C1053F824308C07240F00FA04F4AD
:1007F00023430C4C08348D1044F8253030BD0A4991
:10080000DC3108607047000000080140000C014026
:10081000001001400014014000180140001C01407C
:10082000002001400000014000002042DF48006835
:1008300040F00100DD49086008464068DC49084096
:10084000DA49486008460068DA490840D749086034
:100850000846006820F4802008600846406820F4BC
:10086000FE0048604FF41F0088607047CF49096858
:1008700021F48031CD4A11601146096821F48021AC
:100880001160B0F5803F03D0B0F5802F0ED106E0A7
:10089000C649096841F48031C44A116007E0C34980
:1008A000096841F4A021C14A116000E000BF00BF07
:1008B000704710B501460022002300204A11012A8A
:1008C00002D1BA4C236806E0022A02D1B74C236A4F
:1008D00001E0B64C636A01F01F02012494401C4001
:1008E0000CB1012000E0002010BD38B500200090C0
:1008F0000024002500BF3120FFF7DBFF05460098EC
:10090000401C00900098B0F5A06F01D0002DF2D0EF
:100910003120FFF7CEFF08B1012400E0002420467B
:1009200038BD01460020A14A106820F0F80040EAD6
:10093000C10010607047A04908607047024600205F
:100940009A4B586820F47C1042EA01031843974BF5
:100950005860704798490866704701460020934ADE
:10096000506820F003000843506070478F4840688B
:1009700000F00C007047014600208C4A506820F0BF
:10098000F00008435060704701460020874A5068D5
:1009900020F4E06008435060704701460020834A1D
:1009A000506820F4605040EAC1005060704729B19F
:1009B0007E4A527A02437D4B5A7204E07B4A527A55
:1009C00082437A4B5A7270477B49D831086070472E
:1009D00001460020754A506820F4404008435060AA
:1009E00070470021714A20321170704A82F820103D
:1009F000012802D004280AD104E001216B4A2032E8
:100A0000117005E00521694A2032117000E000BF35
:100A100000BF70476949086070476449096A01432B
:100A2000624A11627047654944390860704730B5C1
:100A300000210022002400235C4D6D6805F00C01AC
:100A400021B1042905D0082923D105E05C4D0560BA
:100A500022E05B4D05601FE0544D6D6805F4701297
:100A6000524D6D6805F48034022505EB92421CB9A5
:100A7000544D554305600BE04C4D6D6805F4003551
:100A80001DB1504D5543056002E04D4D5543056085
:100A900002E04B4D056000BF00BF444D6D6805F09E
:100AA000F0010909484D6B5C0568DD4045603F4D2C
:100AB0006D6805F4E061090A434D6B5C4568DD40F3
:100AC00085603A4D6D6805F46051C90A3E4D6B5C16
:100AD0004568DD40C560354D6D6805F44041890BC2
:100AE0003A4D6B5CC568B5FBF3F5056130BD29B1C6
:100AF0002E4A526902432D4B5A6104E02B4A526937
:100B000082432A4B5A61704729B1284A92690243AD
:100B1000264B9A6104E0254A92698243234B9A61ED
:100B2000704729B1214AD2690243204BDA6104E0BF
:100B30001E4AD26982431D4BDA61704729B11B4AB4
:100B4000D2680243194BDA6004E0184AD268824343
:100B5000164BDA60704729B1144A12690243134BED
:100B60001A6104E0114A12698243104B1A617047FE
:100B700012494039086070470F49C86470470B49F3
:100B8000C87170470948406A40F080700749486260
:100B9000704701460020054A92680A400AB10120C8
:100BA00000E0002070470149887270470010024041
:100BB0000000FFF8FFFFF6FE0000424280044242C0
:100BC00000127A0000093D001400002024000020DB
:100BD0001FB501211120FFF797FF4FF48070ADF88A
:100BE000000004208DF8030003208DF80200694600
:100BF0001C48FFF7CDFC4FF4A06001F0E5FC172086
:100C00008DF8040001208DF8050000208DF8060005
:100C100001208DF8070001A801F0DBFC4FF4807083
:100C200002F017F908210220FFF7C8FD4FF4807089
:100C3000029000208DF80C000C208DF80D00012092
:100C40008DF80E0002A802F08DF81FBD10B54FF40C
:100C5000807002F0EDF818B14FF4807002F0F9F8EE
:100C600010BD00000010014008B501211420FFF75D
:100C70004BFF4FF4F050ADF8000003208DF8020058
:100C800010208DF803006946FE48FFF781FC4FF401
:100C90005870ADF8000003208DF8020004208DF894
:100CA00003006946F848FFF773FC08BD002007E021
:100CB000002100E0491C40F654329142FADB401C0E
:100CC0006428F5DB70472DE9FC5F4FF48051ED4857
:100CD000FFF70BFD4FF40061EA48FFF708FD4FF402
:100CE0008061E848FFF703FD4FF40071E548FFF726
:100CF000FEFC4FF40071E448FFF7DDFC002854D0FF
:100D0000FFF7D4FF4FF40071DF48FFF7D4FC002851
:100D10004BD000BF4FF40071DB48FFF7CCFC00283C
:100D2000F8D10120D9490870D9480078E0B90846BF
:100D30000178D848D84A127881541020D7490090B9
:100D4000097800EBC101C8B20123D0490A7800211B
:100D500000F088FED0480078401CCF490870CF488A
:100D60000078401CCD490870C948007801281CD182
:100D7000C6480178CA48C84A127881541020C74929
:100D80000090097800EBC101C8B20123BF490A787D
:100D9000022100F067FEC0480078401CBE49087080
:100DA000BE480078401CBD4908704FF48071B648B9
:100DB000FFF781FC002854D0FFF778FF4FF48071D3
:100DC000B148FFF778FC00284BD000BF4FF480718A
:100DD000AD48FFF770FC0028F8D10220AB4908703D
:100DE000AB480078E0B908460078AA49AA4A1278C8
:100DF00088541020A9490090097800EBC101C8B2BD
:100E00000123A2490A78002100F02CFEA2480078B4
:100E1000401CA1490870A1480078401C9F490870F7
:100E20009B48007801281CD1984800789C499A4A30
:100E300012788854102099490090097800EBC1017C
:100E4000C8B2012391490A78022100F00BFE9248B2
:100E50000078401C9049087090480078401C8F49E9
:100E6000087040218848FFF726FC002852D0FFF781
:100E70001DFF40218448FFF71EFC00284AD000BF18
:100E800040218148FFF717FC0028F9D103207F4952
:100E900008707F480078E0B9084600787D497E4AAE
:100EA0001278885410207D490090097800EBC10128
:100EB000C8B2012375490A78002100F0D3FD7648B5
:100EC0000078401C7449087074480078401C7349CD
:100ED00008706F48007801281CD16C480078704970
:100EE0006D4A1278885410206C490090097800EB04
:100EF000C101C8B2012365490A78022100F0B2FDA0
:100F000065480078401C6449087064480078401CBB
:100F10006249087020215C48FFF7CDFB50B3FFF712
:100F2000C5FE20215848FFF7C6FB18B300BF20219B
:100F30005548FFF7C0FB0028F9D15648C07860B982
:100F40005448407848B954480078012805D15148A0
:100F50000078504948700020087000204E49087001
:100F60004E49087001204A4908704EA200210846E7
:100F700000F0B5FD4FF400614248FFF7B6FB4FF4B7
:100F800080514048FFF7B3FB4FF480613D48FFF7C5
:100F9000AEFB4FF400713B48FFF7A9FB4FF4007123
:100FA0003948FFF788FB002854D0FFF77FFE4FF445
:100FB00000713548FFF77FFB00284BD000BF4FF48E
:100FC00000713148FFF777FB0028F8D104202F4942
:100FD00008702F480078E0B9084600782D492E4A5D
:100FE0001278885410202D490090097800EBC10137
:100FF000C8B2012325490A78002100F033FD2648B4
:101000000078401C2449087024480078401C23497B
:1010100008701F48007801281CD11C48007820491E
:101020001D4A1278885410201C490090097800EB62
:10103000C101C8B2012315490A78022100F012FD4E
:1010400015480078401C1449087014480078401C6A
:10105000124908704FF480710B48FFF72CFB0028F1
:1010600067D0FFF723FE4FF480710748FFF723FB9B
:1010700000285ED000BF4FF480710348FFF71BFBD0
:10108000002811E000080140001001402800002065
:101090002B000020D41F0020290000202A0000205F
:1010A000DE1F002055000000E5D10520FE49087034
:1010B000FE480078E0B908460078FD49FD4A1278FC
:1010C00088541020FC490090097800EBC101C8B297
:1010D0000123F5490A78002100F0C4FCF5480078A6
:1010E000401CF4490870F4480078401CF24908702C
:1010F000EE48007801281CD1EB480078EF49ED4A12
:10110000127888541020EC490090097800EBC10156
:10111000C8B20123E4490A78022100F0A3FCE548A3
:101120000078401CE3490870E3480078401CE2491D
:1011300008704021E248FFF7BEFA002853D0FFF7BD
:10114000B5FD4021DE48FFF7B6FAE8B300BF402105
:10115000DB48FFF7B0FA0028F9D10620D249087021
:10116000D2480078E0B908460078D149D14A1278CF
:1011700088541020D0490090097800EBC101C8B212
:101180000123C9490A78002100F06CFCC9480078A5
:10119000401CC8490870C8480078401CC6490870FF
:1011A000C248007801281ED1BF480178C348C14A0F
:1011B000127881541020C0490090097800EBC101D9
:1011C000C8B20123B84900E00DE00A78022100F01E
:1011D00049FCB8480078401CB6490870B648007809
:1011E000401CB54908702021B548FFF764FAC0B12A
:1011F000FFF75CFD2021B248FFF75DFA88B100BF20
:101200002021AF48FFF757FA0028F9D1A949087003
:10121000A94908700120A54908704FF4F870A94940
:1012200008604FF48061A848FFF75FFA4FF48051DF
:10123000A548FFF75CFA4FF40061A348FFF757FA9F
:101240004FF40071A048FFF752FA4FF400719C4828
:10125000FFF731FAF0B3FFF729FD4FF4007198481A
:10126000FFF729FAB0B300BF4FF400719448FFF7BD
:1012700022FA0028F8D107208B4908708B480078A3
:10128000E0B9084600788A498A4A127888541020C2
:1012900089490090097800EBC101C8B20123824955
:1012A0000A78002100F0DEFB82480078401C81496A
:1012B000087081480078401C7F4908707B4800789E
:1012C00001281ED1784800787C497A4A12788854DF
:1012D000102000E015E078490090097800EBC1018A
:1012E000C8B2012370490A78022100F0BBFB7148A3
:1012F0000078401C6F4908706F480078401C6E49A8
:1013000008704FF480716E48FFF7D5F9F0B3FFF71E
:10131000CDFC4FF480716A48FFF7CDF9B0B300BF40
:101320004FF480716648FFF7C6F90028F8D108200D
:101330005D4908705D480078E0B9084600785C496E
:101340005C4A1278885410205B490090097800EBC1
:10135000C101C8B2012354490A78002100F082FB80
:1013600054480078401C5349087053480078401C8A
:10137000514908704D48007801281ED14A4800782C
:101380004E494C4A12788854102000E015E04A4932
:101390000090097800EBC101C8B2012342490A78E4
:1013A000022100F05FFB43480078401C414908706F
:1013B00041480078401C4049087040214048FFF7F0
:1013C0007AF9E8B3FFF772FC40213D48FFF773F963
:1013D000B0B300BF40213A48FFF76DF90028F9D1BA
:1013E00009203149087031480078E0B90846007892
:1013F0002F49304A1278885410202F4900900978DC
:1014000000EBC101C8B2012327490A78002100F08E
:1014100029FB28480078401C264908702648007897
:10142000401C254908702148007801281ED11E481B
:10143000007822491F4A1278885410201E4900E083
:1014400014E00090097800EBC101C8B201231649ED
:101450000A78022100F006FB16480078401C154966
:10146000087015480078401C134908702021144862
:10147000FFF721F950B3FFF719FC20211048FFF7BF
:101480001AF918B300BF20210D48FFF714F90028FE
:10149000F9D108490870084908700120034908700B
:1014A00040F2E130074912E0280000202B00002024
:1014B000D41F0020290000202A000020DE1F002069
:1014C000001001409C1F00200008014000E008605F
:1014D0004FF40071E548FFF708F94FF48051E348F5
:1014E000FFF705F94FF40061E048FFF700F94FF40A
:1014F0008061DE48FFF7FBF84FF40071DC48FFF72E
:10150000DAF8002864D0FFF7D1FB4FF40071D84817
:10151000FFF7D1F8E8B300BF4FF40071D448FFF7EC
:10152000CAF80028F8D1D348007800BB2E20D24951
:10153000D24A12788854D1490978102202EBC101AD
:10154000C8B2CFA2002100F0CAFACB4840782E28BA
:101550000DD1C9484078C84988700846007848705D
:1015600000200870C5480078401CC4490870C14874
:101570000078012822D12E20C249C04A127888540E
:10158000BE490978102202EBC101C8B2BCA20221F7
:1015900000E01DE000F0A3FABA4840782E280DD1F3
:1015A000B8484078B74988700846007848700020ED
:1015B0000870B2480078401CB0490870AF48007805
:1015C000401CAE490870B0480078401CAE49087015
:1015D0004FF48071A648FFF76EF8E8B3FFF766FB9B
:1015E0004FF48071A248FFF766F8A8B300BF4FF42C
:1015F00080719F48FFF75FF80028F8D1A349087071
:101600009C480078E0B9084600789B499B4A1278CC
:10161000885410209C490090097800EBC101C8B2A1
:1016200001239A490A78002100F01CFA93480078B7
:10163000401C9249087094480078401C92490870F8
:101640008C48007801281ED1904800788D498B4A3B
:1016500012788854102000E015E08B49009009783A
:1016600000EBC101C8B2012388490A78022100F0C9
:10167000F9F982480078401C804908708248007857
:10168000401C8149087040217948FFF714F808B3DD
:10169000FFF70CFB40217648FFF70DF8D0B100248E
:1016A00000BF40217248FFF706F80028F9D17349BE
:1016B00008707049087074490870002405E0002023
:1016C0006D4908556F490855641C032CF7DD00F07F
:1016D0003EF900BF20216648FEF7EDFF00287DD0CF
:1016E000FFF7E4FA20216248FEF7E5FF0028F6D074
:1016F00000BF20215E48FEF7DEFF0028F9D16148D7
:10170000C07860B95F48407848B95C4800780128E3
:1017100005D15C4800785B494870002008700020C3
:1017200056490870584908705349C87803F0CEFCF0
:10173000019003F01BFB8046554A564B03F022F9FB
:1017400004460D464C49487803F0C0FC4A490190D4
:10175000087803F0BBFC5049009003F0FFFC814681
:10176000019903F02FFB804603F000FB064622465A
:101770002B4602F0A5FE824602F070FE4749086043
:101780004049C87803F0A2FC019003F0EFFA8046CC
:101790003F4A404B03F0F6F806460F463949487871
:1017A00003F094FC37490190087803F08FFC3A4924
:1017B000009003F0D3FC8146019903F003FB8046BF
:1017C00003F0D4FA824632463B4602F079FE0446E4
:1017D00002F044FE32490860304800E043E000680F
:1017E00003F0C4FA06462F4A2F4B03F0CBF8044609
:1017F00003F06EF82D490860294801682C4803F071
:101800004FFB044603F00EFC2A49086008460068B6
:1018100040F21451884203DA2648006800280CDCA4
:1018200025A20421002000F05AF94FF4E17021496B
:1018300008604FF07E502249086022A20221002059
:1018400000F04DF90021204801F05CFF19480068C4
:1018500000F0E3FB1DA20021382000F040F9012137
:10186000194801F04FFFBDE8FC9F0000000801404F
:10187000001001402B000020D41F00202900002070
:101880002E000000DE1F00202A000020280000207B
:101890009A9999999999B93F000020412C0000200C
:1018A000300000203BDF4F8D97DE47408C1F00202B
:1018B00000C8AF46841F00204572726F722100007D
:1018C000801F00206600000000340140446F6E65F8
:1018D00000000000014605E0962200E0521E002AAA
:1018E000FCD1491E0029F7D1704770B504460E4659
:1018F00026B10421EA48FEF7F8FE03E00421E84897
:10190000FEF7F5FE4FF48051E648FEF7F0FE0025A5
:1019100015E08021E448FEF7EAFE04F0800020B1E3
:101920004021E148FEF7E1FE03E04021DE48FEF7FA
:10193000DEFE8021DC48FEF7D8FE64006D1C082D19
:10194000E7D34FF48051D748FEF7CFFE70BD70B596
:10195000002416E004F1B0000021FFF7C6FF0021CB
:101960000846FFF7C2FF00211020FFF7BEFF002549
:1019700004E001210020FFF7B8FF6D1C802DF8D393
:10198000641C082CE6D370BD70B504460D4605F105
:10199000B0000021FFF7A9FFC4F3031141F01000CC
:1019A0000021FFF7A2FF04F00F000021FFF79DFFC9
:1019B00070BD10B500218D20FFF797FF0021142086
:1019C000FFF793FF0021AF20FFF78FFF10BD10B589
:1019D00000218D20FFF789FF00211020FFF785FFF0
:1019E0000021AE20FFF781FF10BD2DE9F041074631
:1019F0000E46904600250024A8F12000C5B27F2F96
:101A000001D90027B61C31463846FFF7BDFF002438
:101A100008E004EB0511A54A505C0121FFF765FFC2
:101A2000601CC4B2082CF4DB711C3846FFF7ACFF15
:101A3000002409E004EB051108319C4A505C0121A7
:101A4000FFF753FF601CC4B2082CF3DBBDE8F08144
:101A500010B50246012000E050430B1EA1F1010128
:101A6000FAD110BD2DE9FF5F074691461D460E9E37
:101A70004FF0000A00242EE0281B411E0A20FFF729
:101A8000E7FFB9FBF0F00A21B0FBF1F201FB12080D
:101A9000BAF1000F12D1681EA0420FD9B8F1000FA1
:101AA0000AD1B34606EBDB71491001FB047020221A
:101AB0000199FFF79AFF0DE04FF0010AB34606EBDC
:101AC000DB71491001FB047008F130020199FFF746
:101AD0008CFF00BF641CAC42CED3BDE8FF9F2DE954
:101AE000F04104460F46154600260EE0AA5D394631
:101AF0002046FFF77AFF04F10800C4B2782C02DD1B
:101B00000024B81CC7B2701CC6B2A85D0028EDD175
:101B1000BDE8F08108B501213820FEF7F5FF10205F
:101B20008DF80300E020ADF8000003208DF80200DE
:101B300069465D48FEF72CFD10208DF80300042057
:101B4000ADF8000003208DF8020069465448FEF706
:101B50001FFD10208DF803000002ADF800000320E7
:101B60008DF8020069464F48FEF712FD08BD10B51A
:101B7000FFF7D0FF80214C48FEF7B7FD4FF48051AE
:101B80004848FEF7B2FD20214748FEF7AEFD64202D
:101B9000FFF7A0FE20214448FEF7A9FD6420FFF7CF
:101BA00099FE20214048FEF7A0FD0021AE20FFF75E
:101BB0009CFE00210220FFF798FE00211020FFF775
:101BC00094FE00214020FFF790FE00218120FFF7C6
:101BD0008CFE0021CF20FFF788FE0021A120FFF717
:101BE00084FE0021C820FFF780FE0021A620FFF719
:101BF0007CFE0021A820FFF778FE00213F20FFF7A0
:101C000074FE0021D320FFF770FE00210846FFF785
:101C10006CFE0021D520FFF768FE00218020FFF731
:101C200064FE0021D920FFF760FE0021F120FFF7BC
:101C30005CFE0021DA20FFF758FE00211220FFF79A
:101C400054FE0021DB20FFF750FE00214020FFF76B
:101C50004CFE00212020FFF748FE00210220FFF764
:101C600044FE00218D20FFF740FE00211420FFF7E5
:101C70003CFE0021A420FFF738FE0021A620FFF73C
:101C800034FE0021AF20FFF730FE0021AF20FFF728
:101C90002CFEFFF75CFE00210846FFF775FE10BD25
:101CA0000014014000100140000C01405A57000888
:101CB0002DE9F04704464FF000090020FE49086076
:101CC000204602F034FE0746FC4AFD4B02F0A8FC19
:101CD000054602F0FDFD814600BFF7480068484513
:101CE000FBD1BDE8F08730B589B004460121480337
:101CF000FEF70AFF40F23F60ADF80C000120ADF89E
:101D000008000020ADF80E00ADF80A008DF81000B4
:101D100002A9EC4801F09AF96020ADF81400012006
:101D2000ADF816000420ADF818000020ADF81C0036
:101D3000ADF81E00ADF82000ADF82200E2492046C3
:101D400003F00CFA054603F089F980B2ADF81A00E9
:101D500005A9DC4801F0F9F90821DA4801F00BFE89
:101D60002C208DF8040001208DF8050000208DF84E
:101D7000060001208DF8070001A800F02AFC0121CF
:101D8000D04801F0BFFC0121CE4801F0C7FC012280
:101D90004121CC4801F0D1FC09B030BD2DE9F04122
:101DA0000121C84801F077FF002873D0C2480068BD
:101DB000401CC1490860084600684FF6FF71884220
:101DC00002D10020BC49086000F0C8FBBF48006891
:101DD000BF4909680844BD490860BE480068BE495B
:101DE00009680844BB490860BC480068401CBB49FE
:101DF00008600846006832287ED1B4480068322165
:101E000090FBF1F0B64908600020B0490860B14885
:101E10000068322190FBF1F0B24908600020AD4922
:101E20000860AE490860AE480068AF490968401ACA
:101E3000AE49086008460068022812DD08460068BE
:101E400014280EDCAA48006802F090FF0646A94A52
:101E5000A94B02F0A1FE044602F000FBA449086071
:101E60003FE0A248006810F1020F14DA9F480068B2
:101E700010F1140F0FDB9E48006802F077FF064652
:101E80009C4A9D4B02F01CFB044602F0E7FA98497D
:101E9000086026E0BBE09548006814280EDD9448F1
:101EA000006802F063FF0646944A954B02F074FE08
:101EB000044602F0D3FA8E49086012E08B480068AD
:101EC00010F1140F0DDA8A48006802F04FFF064641
:101ED0008A4A8B4B02F0F4FA044602F0BFFA8449B6
:101EE00008604FF07E518248006803F003FA05D283
:101EF0004FF07E507E4900E05FE0086000217C48A2
:101F0000006803F0F7F802D87E4879490860754800
:101F100000687D490968401A7C49086008460068E5
:101F20000A2809DD08460068322805DC7848006880
:101F3000C01E7749086023E07448006810F10A0F5A
:101F40000ADA7248006810F1320F05DB7048006849
:101F5000C01C6F49086013E06C480068322805DD3A
:101F60006B4800680F386A49086009E067480068F4
:101F700010F1320F04DA664800680F3064490860D7
:101F800063480068022802DA02206149086060485C
:101F9000006840F23B61884202DD08465C49086007
:101FA0005B480068C0F5C8605A4908600846008868
:101FB00081B24FF0804001F043FE5749574A126802
:101FC00051F8220003F06AF8064649480168304695
:101FD00003F0C4F80546524902F0F4FE044603F04B
:101FE00021F8504908604D480068401C4B49086082
:101FF0004C48006881B2334801F01EFE4748006833
:1020000049490968884202D10020444908600121F9
:102010002C4801F051FEBDE8F0812DE9F04F8DB064
:102020008146012400200C9000BF9EE0484602F04B
:102030007EFC05460E46600002F079FC82463B4A73
:102040003B4B02F09FFC2A463346CDE9000102F0EB
:10205000E7FA074602F0B4F9CDE90401484602F078
:1020600066FC07468846611E480002F060FC054693
:102070002E4A2F4B02F086FC3A464346CDE900013A
:1020800002F0CEFA824602F09BF9CDE90201DDE9C9
:10209000042302F081FDCDE90801484602F047FC27
:1020A0000546224A234B02F0BBFACDE90601DDE9E1
:1020B000082302F067FC3FE0741F00209A99999969
:1020C0009999A93F003401400000C844901F0020A6
:1020D000C81F0020B01F0020CC1F0020981F002028
:1020E000941F0020AC1F00208C1F0020881F0020A0
:1020F000801F00202D431CEBE2361A3F6132553021
:102100002AA9333F6F12833A9C1F0020A01F002092
:10211000A81F0020A41F002034000020781F0020EA
:10212000000048447C1F0020841F00204AD8124D24
:10213000FB210940FB212940CDE90A0102F08EF97B
:102140000C9046490C9803F009F8824602F00EFE06
:102150000746434A434B02F015FC054602F0B8FB24
:10216000611E414A42F82100641C4C457FF75EAF76
:1021700001200DB0BDE8F08F30B587B004460121D5
:102180000846FEF7CEFC40F23F60ADF804000120A7
:10219000ADF800000020ADF80600ADF802008DF8A3
:1021A000080069464FF0804000F050FF6020ADF815
:1021B0000C000120ADF80E000020ADF81000ADF8C5
:1021C0001400ADF81600ADF81800ADF81A00274954
:1021D000204602F0C3FF054602F040FF80B2ADF892
:1021E000120003A94FF0804001F047F80821C8060B
:1021F00001F0D7FB0121880701F084FA07B030BD58
:1022000008B501211820FEF77FFC8020ADF8000002
:1022100018208DF8030003208DF802006946144849
:10222000FEF7B6F90120ADF8000018208DF8030084
:1022300003208DF8020069460E48FEF7A9F9082030
:10224000ADF8000018208DF8030003208DF802007F
:1022500069460948FEF79CF908BD00000000C84423
:10226000EC51B81E85EBEF3F3400002000E0C7447E
:1022700000100140000C0140000801401FB5012181
:102280000220FEF74EFC40F20770ADF80800012076
:10229000ADF804000020ADF80A00ADF8060001A971
:1022A000134800F0D3FE01221146114801F045FA0F
:1022B00001210F4801F026FA1D208DF800000220B0
:1022C0008DF8010000208DF8020001208DF8030038
:1022D000684600F07EF91FBD10B50121044801F0E9
:1022E000DAFC18B10121024801F0E6FC10BD000043
:1022F0000004004000B589B001210420FEF711FC64
:1023000001210820FEF700FC4FF4A06000F05CF90A
:102310004FF44070ADF8200028208DF8230008A964
:102320003648FEF735F94FF440713448FEF7DFF9CF
:102330001D20ADF818000920ADF814000020ADF8FC
:102340001A00ADF8160005A92D4800F07FFE082000
:10235000ADF808000220ADF80A000120ADF80C002D
:102360000020ADF80E000F20ADF8100002A924489F
:1023700001F0FFF80C20ADF808000020ADF80A00CD
:102380000120ADF80C000020ADF80E000F20ADF8D4
:10239000100002A91A4801F0ECF81E208DF8040084
:1023A00002208DF8050000208DF8060001208DF830
:1023B000070001A800F00DF901221821104801F0D2
:1023C000BCF901210E4801F09DF909B000BD10B51E
:1023D000002408210A4801F05EFC30B1084824308E
:1023E0000488074801F045FC04461021044801F028
:1023F00052FC1821024801F05FFC10BD000C0140A6
:102400000008004030B502460023002000BF19E05C
:10241000002012E052F82050441C52F82440A542FB
:102420000ADD52F82040451C52F8255042F8205051
:10243000451C42F8254000BF401CCC1A641E844253
:10244000E8DC5B1C4C1E9C42E2DC30BD08B501217F
:102450000846FEF74CFB01214FF40170FEF754FBD8
:102460007020ADF8000000208DF8030003208DF8E7
:10247000020069464548FEF78BF808BD00B591B0EB
:10248000434800F037FB434806904348079000203C
:1024900008900220099000200A9080200B904000B4
:1024A0000C9080000D9020200E9000020F900020D4
:1024B000109006A9364800F0BFFB0121344800F017
:1024C000E6FB0020019001208DF808008DF809003E
:1024D0004FF4602003900020049002208DF8140037
:1024E00001A92C484C3800F004F94FF44040FEF7A5
:1024F0006FFA07230122042126484C3800F091F995
:1025000007230222052123484C3800F08AF90121D3
:1025100020484C3800F024F901211E484C3800F0C6
:1025200014F91C484C3800F032F900BF19484C38F7
:1025300000F032F90028F9D116484C3800F036F98D
:1025400000BF14484C3800F036F90028F9D10121B9
:1025500010484C3800F039F911B000BD10B500201A
:1025600000210023002207E00B4C248820440A4C61
:1025700064882144541CE2B2042AF5DB80088908EF
:10258000064C2060064C216010BD00000008014090
:10259000080002404C240140B41F0020C81F002046
:1025A000CC1F002010B545F2555000F05BFC042014
:1025B00000F05BFC4FF4487000F05AFC00F05BFC4C
:1025C00000F05EFC10BD000031490143314A11604A
:1025D000704770B5002100230F22C47804B32D4C3E
:1025E000246804F4E064C4F5E064210AC1F1040342
:1025F000CA40447804FA03F1847814402143090165
:10260000254C0678A155047804F01F050124AC4040
:1026100005786D11AD0005F1E025C5F8004109E030
:10262000047804F01F050124AC401C4D0678761197
:1026300045F8264070BD1A4A0A400243154B1B1F3D
:102640001A60704739B1134A121D12680243114BC8
:102650001B1D1A6006E00F4A121D126882430D4BC3
:102660001B1D1A607047042808D14FF0E02109694A
:1026700041F004014FF0E022116107E04FF0E0214A
:10268000096921F004014FF0E02211617047000058
:102690000000FA050CED00E000E400E080E100E05D
:1026A00080FFFF1F10B50446FA48844208D101217B
:1026B0004015FEF743FA00216015FEF73FFA17E0D8
:1026C000F548844208D101210015FEF737FA0021B0
:1026D0002015FEF733FA0BE0F048844208D10121BF
:1026E000C803FEF72BFA00214FF40040FEF726FA4C
:1026F00010BD30B50246002000235068E84C204051
:102700000D790C6844EA0524204350609068E54C3C
:102710002040D1E902542C434D7944EA450420433A
:102720009060D06A20F470000C7C641EE4B22343F5
:1027300040EA0350D06230BD002101600171417157
:102740008160C16001210174704721B1826842F04B
:102750000102826003E0826822F001028260704719
:1027600021B1826842F48072826003E0826822F4C0
:1027700080728260704710B50023CBB21AB14468F2
:102780001C43446002E044689C43446010BD81687F
:1027900041F0080181607047014600208A6802F01C
:1027A00008020AB1012000E000207047816841F072
:1027B000040181607047014600208A6802F004022B
:1027C0000AB1012000E00020704721B1826842F484
:1027D000A002826003E0826822F4A0028260704757
:1027E000014600208A6802F480020AB1012000E05C
:1027F0000020704710B50A4600210023416821F4EB
:102800006041531E41EA4331416010BD21B142682D
:1028100042F40062426003E0426822F400624260D7
:102820007047F0B504460D4600200021092D11DD4A
:10283000E068A5F10A0606EB4607072606FA07F147
:102840008843A5F10A0606EB460603FA06F108439B
:10285000E0600CE0206905EB4507072606FA07F162
:10286000884305EB450603FA06F108432061072A71
:102870000FDA606B561E06EB86071F2606FA07F175
:102880008843561E06EB860605FA06F10843606388
:1028900022E00D2A0FDA206BD61F06EB86071F26D3
:1028A00006FA07F18843D61F06EB860605FA06F1FD
:1028B0000843206310E0E06AA2F10D0606EB8607EC
:1028C0001F2606FA07F18843A2F10D0606EB8606DD
:1028D00005FA06F10843E062F0BD21B1826842F4D6
:1028E0008012826003E0826822F480128260704766
:1028F0000146C86C80B2704766484C30006870472B
:1029000021B1426842F48062426003E0426822F4EE
:1029100080624260704721B1426842F48052426056
:1029200003E0426822F48052426070470A46002168
:10293000816821F4E04111438160704721B18268D0
:1029400042F40042826003E0826822F40042826026
:10295000704721B1826842F40212826003E082680B
:1029600022F4021282607047014600208A6802F455
:1029700000120AB1012000E000207047F0B50446C3
:102980001546002000220026092911DDE068A1F18A
:102990000A0707EB470C072707FA0CF29043A1F14F
:1029A0000A0707EB470703FA07F21043E0600CE061
:1029B000206901EB410C072707FA0CF2904301EB69
:1029C000410703FA07F210432061A06BC0F30156E0
:1029D000EF1C06F1010CA7EB0C0707EB870C1F2778
:1029E00007FA0CF29043EF1C06F1010CA7EB0C0761
:1029F00007EB870701FA07F21043A063F0BD10B59B
:102A00000A4600210023816B21F44011531E41EA44
:102A10000351816310BD08B5002300930090009B13
:102A20000B440093009B1A6008BD08B502460020C5
:102A30000090009201F12800009B1844009000983B
:102A4000006880B208BD0A4600214168164B194053
:102A50001143416070474162826270470A4600211B
:102A6000416821F01F0111434160704740B109499D
:102A70000831096841F40001064A0832116007E094
:102A800004490831096821F40001024A0832116042
:102A9000704700000024014000280140003C014034
:102AA000FFFEF0FFFDF7F1FFFFFD3FFF02460020B4
:102AB00013680B400BB1012000E000207047CA43AF
:102AC0000260704770B502460020002300240B12FC
:102AD0005568CEB205EA060415681D4015B10CB163
:102AE000012000E0002070BD00220A12D3430360E1
:102AF0007047000001684FF6FE721140016000212E
:102B0000016041608160C1608D49884208D18C4973
:102B10000839496841F00F01894A083A51608AE052
:102B200087491431884208D185490839496841F0FC
:102B3000F001834A083A51607DE08149283188429A
:102B400008D17F490839496841F470617C4A083AE4
:102B5000516070E07A493C31884208D1784908399F
:102B6000496841F47041764A083A516063E074491B
:102B70005031884208D172490839496841F47021BE
:102B80006F4A083A516056E06D496431884208D175
:102B90006B490839496841F47001694A083A516043
:102BA00049E067497831884208D165490839496860
:102BB00041F07061624A083A51603CE061498842E4
:102BC00006D1011F096841F00F01021F116032E0B8
:102BD0005C491431884208D15A49091F096841F0FB
:102BE000F001584A121F116025E0564928318842E9
:102BF00008D15449091F096841F47061514A121FF4
:102C0000116018E04F493C31884208D14D49091FF5
:102C1000096841F470414B4A121F11600BE04949A9
:102C20005031884207D14749091F096841F4702192
:102C3000444A121F1160704710B50022026847F61F
:102C4000F0739A430C6A8B6823430C6923434C69E5
:102C500023438C692343CC6923434C6A23438C6A06
:102C600023431A430260CB6843600B6883604B6860
:102C7000C36010BD0021016041608160C1600161DD
:102C800041618161C161016241628162704721B12C
:102C9000026842F00102026004E002684FF6FE732F
:102CA0001A40026070471AB103680B43036002E0E8
:102CB00003688B4303607047416070470146486872
:102CC00080B2704701460020002201F080531BB102
:102CD0001C4B083B1A6802E0194B083B1A6802EAD1
:102CE00001030BB1012000E00020704700F080518B
:102CF00019B11449091F086002E0114908394860F8
:102D0000704701460020002201F080531BB10D4B9B
:102D1000083B1A6802E00A4B083B1A6802EA010302
:102D20000BB1012000E00020704700F0805119B184
:102D30000449091F086002E00149083948607047EA
:102D40000800024008040240002044490860091DB0
:102D50000860091D0860091D086041483F49143199
:102D60000860704700213D498279002A3AD00A461E
:102D7000126803689A430B461A600A1D12680368BA
:102D80009A430B1D1A60027911440A6803681A43BA
:102D90000A60324A0832126803689A432F4B08339C
:102DA0001A601A1D126803689A432C4B0C331A6080
:102DB0004279102A0ED11A1F126803681A43274B52
:102DC00008331A601A1D126803681A43234B0C3328
:102DD0001A600DE02149427911440A6803681A43D8
:102DE0000A6005E0027911440A6803689A430A60A0
:102DF00070470021016001710C2141710021817136
:102E000070471649103109680143144A10321160A5
:102E1000704701460020114A143212680A400AB174
:102E2000012000E0002070470C4914310860704711
:102E3000014600200022094B1B6803EA0102074BF0
:102E400014331B680B4013B10AB1012000E00020CD
:102E500070470249143108607047000000040140C7
:102E6000FFFF0F000E49086070470D49486070472A
:102E70000B49886070474AF6AA20094908607047E4
:102E80004CF6CC4006490860704701460020044AD1
:102E9000D2680A400AB1012000E00020704700001B
:102EA0000030004010B50446FE48844208D101219C
:102EB000C014FDF743FE0021E014FDF73FFEC4E01F
:102EC000B4F1804F08D101210846FDF744FE0021EE
:102ED0000120FDF740FEB8E0F348844208D101210B
:102EE0000220FDF738FE00210220FDF734FEACE0A1
:102EF000EE48844208D101210420FDF72CFE002178
:102F00000420FDF728FEA0E0E948844208D1012111
:102F10000820FDF720FE00210820FDF71CFE94E0AC
:102F2000E448844208D101211020FDF714FE00215D
:102F30001020FDF710FE88E0DF48844208D101210F
:102F40002020FDF708FE00212020FDF704FE7CE094
:102F5000DA48844208D101214014FDF7EFFD002139
:102F60006014FDF7EBFD70E0D548844209D10121E2
:102F7000C804FDF7E3FD00214FF40020FDF7DEFD5E
:102F800063E0D048844209D101210805FDF7D6FD50
:102F900000214FF48010FDF7D1FD56E0CA4884426D
:102FA00009D101214805FDF7C9FD00214FF40010AA
:102FB000FDF7C4FD49E0C548844208D10121402005
:102FC000FDF7C9FD00214020FDF7C5FD3DE0C048EB
:102FD000844208D101218020FDF7BDFD0021802021
:102FE000FDF7B9FD31E0BB48844208D101218015CD
:102FF000FDF7B1FD0021A015FDF7ADFD25E0B648B8
:10300000844209D101210804FDF798FD00214FF405
:103010008030FDF793FD18E0B048844209D10121CA
:103020004804FDF78BFD00214FF40030FDF786FDCD
:103030000BE0AB48844208D101218804FDF77EFDF6
:1030400000214FF48020FDF779FD10BD0022028899
:10305000944B98420ED0994B98420BD0B0F1804FD0
:1030600008D0914B984205D0904B984202D0904B9B
:10307000984204D14FF68F731A404B881A438D4BF8
:10308000984207D08C4B984204D04FF6FF431A4029
:10309000CB881A4302808B8883850B880385814BFC
:1030A00098420BD0854B984208D08B4B984205D064
:1030B0008A4B984202D08A4B984201D10B7A038600
:1030C00001238382704770B5002400220023058C01
:1030D0004FF6FE7635400584028C8388048B4FF6CC
:1030E0008F752C40B51E2C400D882C43751E2A4030
:1030F0000D892A434D882A436A4DA8420BD06F4D53
:10310000A84208D0744DA84205D0744DA84202D000
:10311000734DA84213D14FF6F7752A404D892A43C3
:103120004FF6FB752A408D882A434FF6FF652B40EA
:103130004FF6FF552B408D892B43CD892B43838040
:103140000483CD888586028470BD70B5002400227A
:103150000023058C4FF6EF7635400584028C83887A
:10316000048B48F6FF752C404FF6FF452C400D8828
:103170004FF6FF7606EA05252C434FF6DF752A4009
:103180000D8906EA05152A434D8806EA05152A43E6
:10319000444DA84202D0494DA8421DD14FF67F753B
:1031A0002A404D894FF6FF7606EA05152A434FF669
:1031B000BF752A408D8806EA05152A434FF6FF356C
:1031C0002B404FF2FF752B408D8906EA85052B4376
:1031D000CD8906EA85052B4383800483CD88058746
:1031E000028470BD70B5002400220023058C4FF6C8
:1031F000FF6635400584028C8388848B4FF68F757B
:103200002C404FF6FC752C400D882C434FF6FF5593
:103210002A400D894FF6FF7606EA05252A434D8898
:1032200006EA05252A431F4DA84202D0234DA84295
:103230001DD14FF2FF752A404D894FF6FF7606EA01
:1032400005252A434FF6FF352A408D8806EA0525D5
:103250002A434EF6FF752B404DF6FF752B408D89A6
:1032600006EA05152B43CD8906EA05152B43838015
:103270008483CD888587028470BD70B500220023C9
:103280000024058C4EF6FF7635400584038C848837
:10329000828B48F6FF752A404FF6FF452A400D887D
:1032A00020E00000002C0140000400400008004025
:1032B000000C0040001000400014004000340140A9
:1032C000004C0140005001400054014000180040F3
:1032D000001C00400020004000400140004401402C
:1032E000004801404FF6FF7606EA05252A434DF6D1
:1032F000FF752B400D8906EA05352B434D8806EAFC
:1033000005352B43FA4DA84202D0FA4DA84208D108
:103310004BF6FF752C408D894FF6FF7606EA851532
:103320002C4384808283CD88A0F84050038470BDF4
:10333000828B4FF2FF331A408283828B4FF6FF73EA
:1033400003EA01231A4382837047F0B50C46154601
:10335000002200210026078C4EF6FF7C07EA0C07AE
:103360000784828B018C4FF6FF7707EA043640F61C
:10337000FF473A404FF6FF7707EA05273A434FF6F3
:10338000FF7707EA03373A43D94FB8420ED0D94FF7
:10339000B8420BD0B0F1804F08D0D74FB84205D01B
:1033A000D64FB84202D0D64FB84206D14DF6FF777D
:1033B000394046F48057394305E047F6FF57394016
:1033C00044F48057394382830184F0BD828B4FF6E9
:1033D000F3731A408283828B0A4382837047F0B56D
:1033E0000C461546002200210026078C4FF6FF6C84
:1033F00007EA0C070784828B018C4FF6FF7707EAF8
:1034000004264FF60C773A404FF6FF7707EA03178A
:103410002F433A43B64FB8420ED0B64FB8420BD006
:10342000B0F1804F08D0B44FB84205D0B34FB84286
:1034300002D0B34FB84206D14FF6FF57394046F499
:103440008077394305E04FF2FF57394044F48077E5
:10345000394382830184F0BD028B4FF2FF331A405F
:103460000283028B4FF6FF7303EA01231A430283A0
:103470007047F0B50C461546002200210026078C47
:103480004FF6EF7C07EA0C070784028B018C4FF69E
:10349000FF7707EA041640F6FF473A404FF6FF77FA
:1034A00007EA03373A434FF6FF7707EA05273A431F
:1034B0008F4FB8420ED08F4FB8420BD0B0F1804F33
:1034C00008D08D4FB84205D08C4FB84202D08C4FF7
:1034D000B84206D14FF6DF77394046F0100739433E
:1034E00005E04FF65F77394044F010073943028317
:1034F0000184F0BD028B4FF6F3731A400283028BF6
:103500000A4302837047F0B50C461546002200219D
:10351000068C4FF6FE773E400684028B018C4FF6F8
:103520000C7632407E1C06EA03162E433243704E60
:10353000B0420ED06F4EB0420BD0B0F1804F08D0E9
:103540006D4EB04205D06D4EB04202D06C4EB042CE
:1035500006D14FF6FD76314044F00106314305E0D7
:103560004FF6F576314044F0010631430283018481
:10357000F0BD70B505460C465D4885420ED05D48ED
:1035800085420BD0B5F1804F08D05B48854205D00D
:103590005A48854202D05A48854200D100E000BF17
:1035A000208850B92389A28861882846FFF7ABFF9D
:1035B000E1882846FFF79EFF25E0208804280AD1ED
:1035C0002389A28861882846FFF753FFE1882846AF
:1035D000FFF742FF17E0208808280AD12389A28834
:1035E00061882846FFF7FBFEE1882846FFF7EEFEDC
:1035F00009E02389A28861882846FFF7A6FEE188B2
:103600002846FFF795FE70BD2DE9F04105460C46B2
:1036100000260127608808B9022600E00026A0885D
:10362000012801D1022700E001272088A0B92389C1
:10363000A28861882846FFF766FFE1882846FFF7E1
:1036400059FF23893A4631462846FFF712FFE188A1
:103650002846FFF701FF13E02389A28861882846E6
:10366000FFF707FFE1882846FFF7F6FE23893A4671
:1036700031462846FFF747FFE1882846FFF73AFF23
:10368000BDE8F0810A884B881A438B881A43CB889F
:103690001A430B891A434B891A438B891A43A0F8A2
:1036A000442070474FF6FF71818000210180C18066
:1036B0004180017270470021018041808180C1807A
:1036C000018141818181C181704700210180418058
:1036D000012181800021C18001817047002101808A
:1036E00041808180C18001814181818170470000DA
:1036F000002C01400034014000040040000800405C
:10370000000C004021B1028842F00102028004E076
:1037100002884FF6FE731A400280704731B1B0F84C
:10372000442042F40042A0F8442005E0B0F84420D0
:10373000C2F30E02A0F8442070471AB183890B43EC
:10374000838102E083898B43838170478182704744
:1037500041EA0203A0F8483070471AB183890B434D
:10376000838102E083898B438381704701894FF60F
:10377000F8721140018170470A46002101894FF615
:103780008F73194011430181704730B504460D46CF
:1037900029462046FFF7F0FF208940F007002081EE
:1037A00030BD2DE9F04104460D4616461F46602DFA
:1037B00006D13B46012231462046FFF75AFE05E07E
:1037C0003B46012231462046FFF79DFE2946204612
:1037D000FFF7D2FF208940F007002081BDE8F0818B
:1037E00030B50C4600210189C9B24FF6FF7505EAD4
:1037F0000325154325432943018130BD2DE9F041BF
:1038000005460E4617469846002443463A4631463A
:103810002846FFF7E5FF2C894FF6F870044044F086
:1038200007044FF68F70044044F070042C81BDE80B
:10383000F081F0B504460D4616461F463B4632461B
:1038400029462046FFF7CCFF208940F480402081A4
:10385000F0BD0185828270470A46002101884FF63B
:103860008F731940114301807047F0B50C4615461F
:103870001E460021002200230189028B038C4FF693
:10388000F877394021434FF6FC473A4040F20117A0
:103890003A434FF6DD773B404FF6FF7707EA0617CE
:1038A0002F433B43018102830384F0BD0A4600217C
:1038B000018B4FF68F7319401143018370470A46FD
:1038C0000021018B48F6FF7319404FF6FF7303EA9E
:1038D00002231943018370470A460021818B4FF66A
:1038E0008F7319401143818370470A460021818BF1
:1038F00048F6FF7319404FF6FF7303EA022319439A
:103900008183704721B1028842F08002028004E086
:1039100002884FF67F731A400280704721B1828877
:1039200042F00402828004E082884FF6FB731A4062
:103930008280704721B1828842F00802828004E0D0
:1039400082884FF6F7731A408280704721B18288CF
:1039500042F00102828004E082884FF6FE731A4032
:10396000828070470A460021018B4FF6F773194099
:103970001143018370470A460021018B4FF2FF7308
:1039800019404FF6FF7303EA02231943018370477E
:103990000A460021818B4FF6F7731940114381834A
:1039A00070470A460021818B4FF2FF7319404FF692
:1039B000FF7303EA02231943818370470A460021FB
:1039C000018B4FF6FB7319401143018370470A4680
:1039D0000021018B4FF6FF3319404FF6FF7303EAC6
:1039E00002231943018370470A460021818B4FF659
:1039F000FB7319401143818370470A460021818B74
:103A00004FF6FF3319404FF6FF7303EA02231943C1
:103A1000818370470A460021018B4FF67F7319405E
:103A20001143018370470A460021018BC1F30E0147
:103A30004FF6FF7303EA02231943018370470A46D6
:103A40000021818B4FF67F731940114381837047AA
:103A50000A460021818BC1F30E014FF6FF7303EA82
:103A600002231943818370470A460021018C4FF6D7
:103A7000FD7319401143018470470A460021018CEF
:103A80004FF6F77319401143018470470A4600212D
:103A9000018C4FF6DF7319404FF6FF7303EA0213F0
:103AA0001943018470470A460021018C4FF67F7349
:103AB00019404FF6FF7303EA02131943018470475C
:103AC0000A460021018C4FF6FF5319404FF6FF7351
:103AD00003EA02231943018470470A460021018C3E
:103AE0004FF2FF7319404FF6FF7303EA02231943A5
:103AF000018470470A460021018C4DF6FF7319407E
:103B00004FF6FF7303EA023319430184704730B55F
:103B1000002301248C40A3B2048C9C430484048CB5
:103B200002FA01F5ADB22C43048430BD30B5002358
:103B300004248C40A3B2048C9C430484048C02FAB9
:103B400001F5ADB22C43048430BD70B503460020AE
:103B500000241846183001258D40ACB21D8CA543B9
:103B60001D8409B1082909D100EB6100056825F021
:103B7000700505600568154305600EE00D1FC5F36F
:103B80004E052844056825F4E045056005684FF6B4
:103B9000FF7606EA02263543056070BD21B1028832
:103BA00042F00202028004E002884FF6FD731A40E0
:103BB0000280704721B1028842F00402028004E0D2
:103BC00002884FF6FB731A400280704721B1828849
:103BD00042F08002828004E082884FF67F731A40B0
:103BE0008280704702884FF6F7731A40028002887D
:103BF0000A430280704782884FF68F731A40828092
:103C000082880A438280704702894FF6F8731A400F
:103C1000028102890A430281704702894FF67F734D
:103C20001A40028102890A430281704781847047E9
:103C3000818570478186704701877047818770470B
:103C4000A0F84010704702884FF6FF431A400280E8
:103C500002880A43028070470146888E70470146F9
:103C6000088F70470146888F70470146B1F84000C1
:103C700070470146888C70470146088D70470246A0
:103C80000020138A0B400BB1012000E00020704798
:103C9000CA430282704730B5024600200023002448
:103CA000158A05EA0103958905EA010413B10CB1EF
:103CB000012000E0002030BDCA43028270477047F7
:103CC0007047704710B500F009F8006810BD10B5D6
:103CD000044600F003F8046010BD0000004870477F
:103CE000E81F002000487047E81F00207546FFF7D6
:103CF000F9FFAE4605006946534620F007008546A9
:103D000018B020B5FCF7D2FBBDE820404FF000060C
:103D10004FF000074FF000084FF0000B21F00701B3
:103D2000AC46ACE8C009ACE8C009ACE8C009ACE8F6
:103D3000C0098D46704710B50446AFF30080204699
:103D4000BDE81040FCF75BBA01491820ABBEFEE7A6
:103D5000260002007047490050EAC12018BF042025
:103D60004A0D18BF40F0010040F2FF72B2EB515F04
:103D700008BF40F00200012808BF0520704700007E
:103D80002DE9F74F144694B00021C4E902111599AA
:103D9000079121F00045C9498D4206DC1599C4E917
:103DA000000117B00020BDE8F08FC549DFF814A36B
:103DB000A9423CDD0799C44E0029C44FC44A159955
:103DC000534619DD00F0E8FE554506D0C14AC24B06
:103DD00000F0E2FEC4E900010AE04FF0D352BE4B0E
:103DE00000F0DAFE32463B4600F0D6FEC4E90001A0
:103DF00017B00120BDE8F08F00F062FB554506D0FA
:103E0000B44AB54B00F05CFBC4E900010AE04FF096
:103E1000D352B14B00F054FB32463B4600F050FB0E
:103E2000C4E9000117B04FF0FF30BDE8F08FAB4997
:103E3000A942159978DB21F0004183468846A84ABB
:103E4000A84B00F09FFD0022A74B00F039FB00F0CB
:103E50003FFD099000F06BFD06460F469C4A534615
:103E600000F090FD43465A4600F08AFE80468A469E
:103E7000984A994B3046394600F084FD2A0D0125B9
:103E80000B924246534600F07BFE032DC4E900012D
:103E900039D00B98C1F30A51401A05EB451111397D
:103EA000814230DA9148C346784400EB0510CDF8E2
:103EB0000CA00C90D0E900233046394600F062FD9A
:103EC00002460B46049106905846039900F064FEA2
:103ED00080468A4602460B465846039900F05CFE2F
:103EE000049B069A00F058FE83460C9803913946CD
:103EF000D0E90223304600F045FD5A46039B00F00E
:103F00004BFE6D1CBDE707980028A2BF099817B0AB
:103F1000BDE8F08F616881F000416160099817B0D9
:103F20004042BDE8F08FFFE784461598C1F31301C6
:103F3000C0F30A50A0F2F5304FEA601800F01F06F7
:103F4000C6F12000139000200690079041F4801ED7
:103F500005206D4676B1664A08EB00017A4452F8B6
:103F6000213002EB8101B3404A68139922FA01F132
:103F7000194305E05F4908EB0002794451F822102B
:103F8000A1FB0E27A1FB0C131A449A4234BF012354
:103F9000002303EB070A05EB8003D3E901B70F44C5
:103FA0008F4234BF0121002193448B4411B19345CA
:103FB00002D903E0934501D2012100E00021C3E9C9
:103FC00001B7514445F82010011EA0F10100C1DCE9
:103FD0000298059F00F10050800F12900298DDE9D1
:103FE0000356800000F0A3FC834628460D9100F0A4
:103FF000B5FC6FF01D0201F056FACDE90E01304616
:1040000000F0ACFC6FF03D0201F04DFA80468A46AC
:10401000384600F0A3FC6FF05D0201F044FA074659
:1040200042465346119100F04BFADDE90E2300F0B1
:1040300047FA5A460D9B00F043FA00250E465A46B1
:1040400028460D9B00F0A8FDDDE90E2300F0A4FD3D
:104050004246534600F0A0FD3A46119B00F090FD09
:10406000DFF898A0244A534600F08CFC07468846A7
:10407000234A244B3146284600F084FC3A46434606
:1040800000F01EFA074688464FF0A84253463146D4
:10409000284600F077FC3A46434600F011FA159A9C
:1040A00012F0004F04D0129A81F000415242129255
:1040B000C4E90001129817B0BDE8F08FFB21E93F79
:1040C0007CD90240FB21F93F7370032E8A19A33B70
:1040D000000040543163621A61B4D03DFB21394184
:1040E00083C8C96D305FE43F0000E03FD41E00008C
:1040F000501E0000321E0000182D4454FB21F93DD3
:104100003326A611460B113C2DE9FF4D21F0004846
:1041100007460C46B8F1795F08DA00F0D9FB0028B1
:1041200001BF0020324904B0BDE8F08D3A46234675
:104130001046194600F026FC054602462D480E465C
:104140000B460621784400F05DF82A46334600F01D
:1041500019FCDDE9022382468B463846214600F0F1
:1041600011FC04460F4652465B462846314600F095
:1041700009FC22463B4600F00FFD07468A464FF0F9
:10418000FF322846314601F08EF91B4A90450ADA83
:104190003A46534600F000FD04B00022BDE8F04D61
:1041A000134B00F0EDBC154A4245A8BFA8F5001519
:1041B0004FF00004B8BF124D22462B4600F0ECFC35
:1041C0000646884622462B460020094900F0E4FCBA
:1041D00004460D463A4653463046414600F0DCFC64
:1041E00004B022462B46BDE8F04D00F0C9BC0000EB
:1041F0000000F03F081C00003333D33F0000E93FCC
:104200000000D23F2DE9F0414F1E00EBC7010446EC
:10421000D1E9000115461E4637F006020DD02A46A8
:10422000334600F0AFFB7F1E04EBC703D3E9002346
:1042300000F046F937F00602F1D1022F25D0042F05
:1042400013D0062F18BFBDE8F0812A46334600F090
:1042500099FBD4E90A2300F033F92A46334600F0EB
:1042600091FBD4E9082300F02BF92A46334600F0ED
:1042700089FBD4E9062300F023F92A46334600F0EF
:1042800081FBD4E9042300F01BF92A46334600F0F1
:1042900079FBD4E9022300F013F92A46334600F0F3
:1042A00071FBD4E90023BDE8F04100F009B900003A
:1042B0002DE9FF4D054621F0004084B00C46B0F1D9
:1042C000795F0BDA2846FFF746FD042808BF00F0A7
:1042D0006FF8284608B02146BDE8F08D2A460B4607
:1042E000104600F04FFB06460F462A46234600F0D4
:1042F00049FB804626488A4632463B46052178449B
:10430000FFF780FF83461098029160B3214A224B49
:104310004046514600F036FBCDE900015A46404682
:104320005146029B00F02EFB82468846DDE90601DD
:104330004FF0FF3201F0B7F85246434600F02CFC34
:1043400032463B4600F01EFBDDE9062300F024FC6C
:10435000DDE9002300F020FC08B02A462346BDE832
:10436000F04D00F00DBC0B465A463046394600F081
:1043700009FB084A084B00F0A3F84246534600F0F8
:1043800001FB08B02A462346BDE8F04D00F098B87E
:10439000461B0000495555555555C5BF012201F032
:1043A00082B8002213461046114600F039B90000C9
:1043B000024A0020110701F076B8000001FDFFFF5E
:1043C00000B5244B21F0004287B09A42DCBF0022A6
:1043D000134629DD204B9A4208D140B94FF0010025
:1043E000FFF775FCFFF7DDFF07B000BD03DBFFF74C
:1043F000D5FF07B000BD02AAFFF7C2FC10F0030111
:1044000004BF0DF1080C9CE80F000DD0012001291C
:104410000ED0022914D00DF1080C00909CE80F007A
:10442000FFF746FF07B000BDFFF76EFE07B000BD07
:104430000DF1080C00909CE80F00FFF739FF05E034
:104440000DF1080C9CE80F00FFF75EFE07B081F04D
:10445000004100BDFB21E93F0000F07F21F0004258
:10446000A2F16052B2F5801F01F0004328BFD2F1E3
:104470007F6C0BD95FEA001C43EAC20242EB50702A
:1044800018BF704728BF20F001007047B2F5801FA9
:10449000BCBF184670474FEA410C1CF5001F02D202
:1044A000084600F022BF70B500F016FB000000893E
:1044B000FFF7F6BF4FF00040A0F580007047000006
:1044C00010B591EA030F48BF83F0004300F16C83FD
:1044D000841A71EB030C05D2121943EB0C03001B79
:1044E00061EB0C01DFF824E14FEA1154A4EB135CFB
:1044F0001EEA430F18BF9EEA445F73D023EA0E03FF
:10450000DCF1200E21EA045143F4801332D322FA65
:104510000CFE10EB0E0023FA0CFE41EB0E01CCF169
:10452000200E03FA0EFE10EB0E0051F10001B1F562
:10453000801FCCF1200E32D201EB045112FA0EF2A0
:10454000BDE8104058BF7047401C38BF5FEA4202C8
:1045500018BF7047002814BF20F0010041F100018E
:104560004FEA410313F5001F38BF7047A1F1C04166
:1045700000F000BB012A43EB0302ACF1200CDCF19C
:104580001F0E32BF4FF0000E23FA0CF310EB0300A6
:1045900041EB0451B4EB115FD0D0A1EB045101F514
:1045A000801149085FEA300001EB04510ED350F14D
:1045B000000038BF12FA0EFE08D1BDE81040C9E76E
:1045C000401C38BF5FEA4202CAD1C3E7BDE81040D1
:1045D0004FEA410313F5001F38BF7047A1F1C041F6
:1045E00000F0C8BA9EEA445F08D011EA5E0FBDE849
:1045F000104004BF01F0004100207047BDE81040AA
:1046000070B500F069FA00BF64FBBE3E0000E0FF39
:1046100002494FF0000000F014BF00BF0000F87F17
:104620002DE9C04130B4DFF8A0C23CEA111418BF34
:104630003CEA131400F0EC8081EA03051CEA111433
:1046400044EAD57418BF1CEA131500F0C780A4EB28
:1046500005044FF0004545EAC12145EAC32341EA7C
:10466000505143EA525304F17F74994204F50034E7
:104670004FEAC0204FEAC22208BF904200F09C805F
:104680004FEA13650FF24016765D4FEA134506FBBD
:1046900005F7C7F1807706FB07F74FEAD737A7FB87
:1046A00003687642C8F58038A7FB06CE38BFA8F16C
:1046B000010807FB08E64FF0000EA6FB028CE6FBA4
:1046C00003CEDCF1000CCEF1004E38BFAEF1010E8E
:1046D000A6FB0C584FF000074FF00005E6FB0E87D5
:1046E000A1FB08C6A0FB07CE16EB0E0645F10005A0
:1046F000E1FB076515F1E04E7EBFA4F580345FEA6B
:1047000046066D4116F1800745F100054FEA17276F
:104710004FEA066647EA0567A6F1DE46B6F1805F16
:104720004FEA15251FD9384624F0010C05EBC4715A
:10473000BCF1FE6F01EB0C1102D8F0BCBDE80081AA
:1047400024425CBF01F5801E9EEAC47F02D4F0BC07
:10475000BDE80081244238D4F0BCA1F1C041BDE8DD
:10476000004100F007BA4FEAD22242EA43524FEA30
:10477000D323A7FB02864FEAD02040EA415007FB33
:1047800003661EEA0E0F4FEAD12105FB026658BFF1
:10479000A6EB0056B6EB00564FEA520E4EEAC37E29
:1047A00018EB0E0E56EB530EBDD518EB02085E410A
:1047B0007F1C55F10005B6E74FF480154FF0000758
:1047C0004FF000064FF00008ADE7F0BC4FF00000DE
:1047D00001F1C04101F00041BDE8008111EA0C1F68
:1047E0000CEA131500D00CE013EA0C1F00F0258032
:1047F0004FF00000F0BC81EA030101F00041BDE888
:104800000081F0BCBDE8004181EA030100F0B2B9CB
:10481000F0BCBDE8004170B500F05EF9097EFC3ED9
:1048200000F007B881EA03014FF0000001F00041F9
:10483000704781EA030100F09DB9F0BCBDE800417A
:104840004FF0000021497047FFFDFBF9F7F5F4F246
:10485000F0EEEDEBE9E8E6E4E3E1E0DEDDDBDAD81B
:10486000D7D5D4D3D1D0CFCDCCCBCAC8C7C6C5C479
:10487000C2C1C0BFBEBDBCBBBAB9B8B7B6B5B4B390
:10488000B2B1B0AFAEADACABAAA9A8A8A7A6A5A47B
:10489000A3A3A2A1A09F9F9E9D9C9C9B9A9999983F
:1048A0009797969595949393929191908F8F8E8EE2
:1048B0008D8C8C8B8B8A898988888787868585846F
:1048C00084838382828181800000FF070000F87F5B
:1048D0004FEA41034FEA5353A3F58063D3F11E031C
:1048E000C8BFD3F1210C0CDD4FF0004242EAC122D7
:1048F00042EA505232FA03FC8CEAE17CACEBE17004
:104900007047102BC4BF0020704703F5787CBCF1C2
:10491000FF3F04D06FF0004282EA2100704770B57B
:1049200000F0DAF84992248000207047F2E710F096
:10493000004248BF4042B0FA80F310FA03F10AD0B7
:10494000C3F11D0303F580634FEA415002EB0352AC
:1049500002EBD12170474FF000007047B0FA80F3AE
:1049600010FA03F10AD0C3F11D0303F580634FEA87
:1049700041504FEA035202EBD12170474FF0000043
:1049800070470000DFF848C170B51CEA111E1EBF59
:104990001CEA13159EEA0C0F95EA0C0F00F06F80CD
:1049A00081EA030423EA4C134EEAD47E21EA4C1137
:1049B00041F4801143F48013AE44A1FB024CA0FBF0
:1049C0000365AEF17F7E361955EB0C05A1FB034C58
:1049D0004CF10003A0FB021C16EB0C06654153F1E1
:1049E0000003094218BF46F0010613F4007F0BD103
:1049F0004FEA03314FEA0530340341EA155140EAEA
:104A000016506FF003020AE04FEAC3214FEAC520B7
:104A1000F40241EA555140EA56506FF0020202EBAF
:104A20002E4201EB025585EACE710AD05FEA440CB2
:104A300018BF24F0004450F1000041F1000120EAC9
:104A4000D47040F2FE7C624500D270BDA84214BF13
:104A50004FF080444FF04044002E08BF0024BEF1C8
:104A6000806FA8BFA1F1C041BDE8704080F2828094
:104A70004FF0000001F1C04101F0004170479EEA93
:104A80000C0F0CEA131518BF95EA0C0F06D04FF067
:104A9000000081EA030E0EF0004170BD00F01CF82A
:104AA0008900013E00F007B800F009B84FEA430C56
:104AB0005FEA5C5C08D081EA030100F05BB84FEA72
:104AC000410C5FEA5C5CF6D14FF000000149704791
:104AD0000000FF070000F87F0EF1020E2EF0030E1B
:104AE0005EF8046B364205D4012A43EB030515F545
:104AF000001F12D8012841EB010C1CF5001F0CD837
:104B00000ED14FEAD17C15F5001F0CEB4C0C0CF1CB
:104B1000020C08BF4CEBD37C04E04FF0080C01E022
:104B20004FEAD37C0CEB4C0526FA05F606F0070697
:104B3000B6F1040C06D20EEB860CBDE870404CF0CA
:104B4000010C6047DFE80CF0090B02024FF0004156
:104B50004FF00000A1F5002170BD19461046012854
:104B600051EB010418BFD4F5001484BF002001F0FC
:104B7000004170BD0808A0F500114FEA31017047EF
:104B800091EA030F10B581F000413FF5A1AC83F02D
:104B9000004300F009B8000010B591EA030F48BFC8
:104BA00083F000433FF594AC841A71EB030C07D2F9
:104BB00012198CF0004C43EB0C03001B61EB0C0151
:104BC000DFF8A4E14FEA1154A4EB135C1EEA430F93
:104BD00018BF9EEA445F00F0B08023EA6E035242A1
:104BE00021EA0451C3EB6E0338BF5B1EDCF1200EDB
:104BF00025D322FA0CFE10EB0E0043FA0CFE41EB1B
:104C00000E01CCF1200E03FA0EFE10EB0E0051F156
:104C10000001CCF1200E29D412FA0EF201EB04515E
:104C2000BDE8104058BF7047401C1CBFB2F1004F98
:104C3000704700280CBF491C20F00100704712EBA0
:104C4000020E43EB030218BF4FF0010E4EEA420280
:104C5000ACF1200CDCF11E0E54D943FA0CFE10EB23
:104C60000E0051F1FF31CCF11E0ED5D50EF1010E23
:104C700012FA0EFE404141EB010101EB445C5FEA98
:104C80005C5C10D910EBDE7001EB045138BFBEF153
:104C9000004FBDE8104018BF704700280CBF491CEA
:104CA00020F00100704730D24FEAD42C11F50011EA
:104CB00024F400641BD0B1FA81F20B3AA41AA41EAA
:104CC000D2F12003914030FA03F31943904001EBF5
:104CD000CC71002C01EB0451BDE81040A8BF704717
:104CE00001F1C0414FF0000001F000417047B0FAFF
:104CF00080F310FA03F100D110BDE41A173C480507
:104D0000C90AE4E701EB045110BD491001EB04515D
:104D1000BDE810404FEA300002E04FF0000170475C
:104D20004A0008BF0042F8D0B2F5001F28BF704704
:104D300001F000414FF0000070479EEA445F07D049
:104D400011EA5E0FBDE8104004BF0021002070474B
:104D5000BDE8104070B5FFF7BFFE00BF40DFF63E74
:104D600083F00041104670470000E0FF43004FEA27
:104D7000D30C4FEA3C0C43401FBF40070CF160517D
:104D800013F0FE4F70471CF0006F03D100200CF0B1
:104D9000004170470CF0004343EA507010B540EA00
:104DA000CC0000F05CFA00BF000000924FEA000166
:104DB000FFF7E0BE4FF000414FF00000A1F50021E9
:104DC0007047000090EA010F48BF81F0004100F1F8
:104DD000CA82421A3CBF801A89184FEAD0524FF05B
:104DE0007F4C1CEA410FA2EBD15318BF9CEA026F23
:104DF00000F03B804FF0004C4CEA00204CEA0121CF
:104E000021FA03FC10EB0C0C1ED202F1FF325FEA18
:104E10001C2040EBC25038BF70471CF07F0F4FEA98
:104E2000400C18BFBCF17F4F38BF7047C3F120035F
:104E3000994008BF20F00100BCF17F4F38BF704798
:104E4000A0F1C04000F051BA4FEA3C00000A40EB2C
:104E5000C25028BF1CF0FF0F4FEA400CE6D018BF2D
:104E6000BCF17F4F38BF7047EAE79CEA026F05D07C
:104E700010EA5C0F08BF00F00040704710B500F06A
:104E8000EEF900BF64FBBE3E401058BFC0F1404089
:104E9000491058BFC1F140418142EFF30080704793
:104EA0004FF47F0C1CEAD0121EBF1CEAD11392EA09
:104EB0000C0F93EA0C0F00F0858090EA010F48BFB9
:104EC00042F4807240F4000C41F400002CF07F4169
:104ED00020F07F4000B58142A2EB03020FF2081CD4
:104EE000ACEB504EC0F100009EF800E04FEA4E0ED1
:104EF00000FB0EFC38BF49004FEA2C1C02F5FA02F9
:104F00000CFB0EF34FEACE1E4FEA112C4FEAC121E3
:104F10000EEB635E42EB22420EFB0CFC4FEA1C538D
:104F200000FB03114FEA112C4FEA01310EFB0CFC80
:104F30004FEADC4C00FB0C11C14228BF09184CEBB6
:104F400003335DF804EB10EB410143EBC250B2F5C3
:104F50007C0F38BF704729D512F0F00F1CBF00F14D
:104F6000C04000F0004070470081828384858687BE
:104F700088898B8C8D8E8F919293959697999A9C18
:104F80009D9FA0A2A3A5A7A8AAACAEB0B2B3B5B787
:104F9000B9BCBEC0C2C5C7C9CCCED1D4D7D9DCDF5D
:104FA000E2E6E9ECF0F3F7FAFE0000004FEA400C0D
:104FB0000CF1807CBCF17E4F28BF7047B0F1C0403F
:104FC00000F093B990EA010F0CEAD11348BF42F404
:104FD0008072624538BF634507D213F47F0F16D045
:104FE00080EA010000F00040704710B500F037F98A
:104FF000097EFC3E00F005B880EA010000F00040A8
:10500000704780EA010000F0004000F06EB912F431
:105010007F0F04BF0248704780EA010000F065B9C5
:105020000000C07F41000B0ED3F19E0208D950F45E
:1050300000034FEA032323FA02F048BF40427047BF
:1050400010B500F00CF900BF499224800020704791
:105050006FF0004282EA200070470000C10DD1F1DC
:105060009E0206DB4FEA002343F0004323FA02F0DE
:105070007047004207D54FEA4001B1F1FE4F02D21E
:105080004FF00000704710B500F0E9F84992248015
:10509000002070476FEA20007047000010F00041C8
:1050A00048BF4042B0FA80F310FA03F2C3F19D0307
:1050B0000BD051EAC35101EB1220530638BF7047A1
:1050C00000F1010008BF20F001007047B0FA80F342
:1050D00010FA03F2C3F19D030AD0D90501EB1220A7
:1050E000530638BF704700F1010008BF20F00100EF
:1050F0007047000050EA010C00F113801CF5000F0E
:1051000058BFBCF5000F01D48842704707D710F58F
:10511000000F58BF11F5000F15D48842704789421F
:1051200070471CF5000F04D5BCF5000FF7D5814280
:1051300070474FF0807C1CEB400F38BF1CEB410FD9
:1051400001D28142704710B500F089F892244900DD
:105150004FF000504FF08051FFF796BE4FF47F0C98
:105160001CEAD0121EBF1CEAD11392EA0C0F93EA7C
:105170000C0F00F0478090EA010F48BF42F48072A4
:105180004FF0004C4CEA00204CEA012102EB0302F4
:10519000A0FB0113A2F50002002918BF43F0010390
:1051A0005B0028BF4FEA330342EB22425FEA132C35
:1051B0004CEBC2502EBFBCEB436FB2F57C0F704777
:1051C0004FEA036CBCF1004F08BF20F00100B2F5BC
:1051D0007C0F38BF70470BD582F0FF0212F5803F7D
:1051E000C8BF704700F1C040D8BF00F00040704712
:1051F00000F5000C5FEA4C0C48BF7047B0F1C040AE
:1052000000F073B890EA010F0CEAD11348BF42F4E2
:105210008072624538BF634504D280EA010000F025
:105220000040704710B500F01AF800BF8900013E39
:1052300000F007B800F009B85FEA410C5FEA1C6CA7
:1052400008D080EA010000F050B85FEA400C5FEA45
:105250001C6CF6D14FF00040A0F5800070470EF1B5
:10526000020E2EF0030E5EF8044B244204D44FEAE3
:105270004102B2F17F4F11D84FEA4003B3F17F4FA3
:105280000CD80ED14FEAD07CB2F17F4F0CEB4C0C16
:105290000CF1020C08BF4CEBD17C04E04FF0080C81
:1052A00001E04FEAD17C0CEB4C0324FA03F404F048
:1052B0000704B4F1040C06D20EEB840CBDE81040D8
:1052C0004CF0010C6047DFE80CF0070802024FF0D9
:1052D0000040A0F5800010BD0846420018BFD2F182
:1052E000807288BF00F0004010BDFF2141EAD0501D
:1052F000C005704751EA000C00F113801CF5000F47
:1053000058BFBCF5000F01D48142704707D711F593
:10531000000F58BF10F5000F15D481427047894225
:1053200070471CF5000F04D5BCF5000FF7D5884277
:1053300070474FF0807C1CEB410F38BF1CEB400FD7
:1053400001D28842704780EA010081EA000180EAC8
:105350000100FFF7F8BE000090EA010F48BF81F09E
:1053600000413FF536AD421A04D882F00042A0EB6E
:10537000020011444FEAD0524FF07F4C1CEA410F1B
:10538000A2EBD15318BF9CEA026F4AD04FF0004CF9
:105390004CEA00204CEA012121FA03FCB0EB0C0C92
:1053A0000FD412F0FE0F36D05FEA4C001DD500126C
:1053B00040EBC25038BF70471CF03F0F18BF70471A
:1053C0000BE0A2F101025FEA1C2040EBC25038BFA3
:1053D00070471CF07F0F18BF7047C3F1200399403E
:1053E00014BF401E20F00100704780084FEA1223CE
:1053F00008BF7047B0FA80FCA2EB0C02CCF1280C7D
:1054000060FA0CF093EA122F04BF00EBC250704711
:105410004FEAC3707047130A5FEADC1008BF704799
:10542000F6E79CEA026F04D010EA5C0F08BF002088
:10543000704710B5FFF713FF40DFF63E81F00040E4
:1054400070470CF00F03092B08BF082000F05980AB
:105450000A2B0BD0082B18BF704708BF1CF0400F59
:105460000AD04FF000004FF0000170471CF0400FD1
:1054700018BF4FF0004070471CF0100F08D020F00C
:10548000704300F07F4242EAD3014FEA4370704715
:1054900000F0604021F07F4242EA000201F07F40CC
:1054A00040EA727070474FF0FF0C4CF4E06C1CEA5D
:1054B00011531CBF9CEA030C9445C2BFDA4201EBB6
:1054C00002517047002B0DD0BCF1000F0FD0002A05
:1054D00001F00041A4BF41F0E04141F07F614FF095
:1054E0000000704701F000414FF00000704750EAA3
:1054F00001334FF09B0C18BF4CF0806C7FF488A8F0
:1055000070471CF4801F11D01CF4E02F03D06FEA09
:10551000CC31490070474FF04050EFF3008222F049
:10552000704242EA000282F3008870474FF00000A8
:1055300070470000000000000000002F0000000085
:105540000700070000147F147F1400242A7F2A120A
:1055500000626408132300364955225000000503F9
:10556000000000001C224100000041221C00001429
:10557000083E08140008083E0808000000A060006B
:1055800000080808080800006060000000201008FB
:105590000402003E5149453E0000427F4000004267
:1055A00061514946002141454B31001814127F10CA
:1055B000002745454539003C4A49493000017109F9
:1055C000050300364949493600064949291E0000AD
:1055D0003636000000005636000000081422410054
:1055E0000014141414140000412214080002015184
:1055F000090600324959513E007C1211127C007F8D
:1056000049494936003E41414122007F4141221C27
:10561000007F49494941007F09090901003E41498C
:10562000497A007F0808087F0000417F4100002080
:1056300040413F01007F08142241007F404040402C
:10564000007F020C027F007F0408107F003E414172
:10565000413E007F09090906003E4151215E007F5D
:10566000091929460046494949310001017F0101D4
:10567000003F4040403F001F2040201F003F403877
:10568000403F0063140814630007087008070061B6
:105690005149454300007F41410000552A552A5594
:1056A000000041417F00000402010204004040402C
:1056B0004040000001020400002054545478007F50
:1056C0004844443800384444442000384444487F27
:1056D00000385454541800087E0901020018A4A48C
:1056E000A47C007F080404780000447D4000004052
:1056F00080847D00007F102844000000417F40002E
:10570000007C04180478007C0804047800384444C1
:10571000443800FC242424180018242418FC007C9D
:105720000804040800485454542000043F44402016
:10573000003C4040207C001C2040201C003C4030AD
:10574000403C004428102844001CA0A0A07C004439
:1057500064544C4414141414141400000000000089
:1057600000000000000000000000000000F8000041
:105770000000000000333000000000100C06100C88
:105780000600000000000000000040C07840C07823
:105790004000043F04043F040400007088FC08300B
:1057A0000000001820FF211E0000F008F000E018A3
:1057B000000000211C031E211E0000F0088870005C
:1057C00000001E2123241927211010160E000000AE
:1057D00000000000000000000000000000E01804CD
:1057E0000200000000071820400000020418E0003A
:1057F00000000040201807000000404080F080407A
:1058000040000202010F01020200000000F000004F
:1058100000000101011F0101010000000000000063
:10582000000080B0700000000000000000000000D8
:105830000000000101010101010100000000000061
:105840000000003030000000000000000000806018
:105850001804006018060100000000E0100808109D
:10586000E000000F102020100F00001010F80000C2
:1058700000000020203F2020000000700808088859
:105880007000003028242221300000300888884829
:1058900030000018202020110E000000C02010F859
:1058A000000000070424243F240000F8088888082A
:1058B00008000019212020110E0000E0108888182F
:1058C0000000000F112020110E0000380808C83811
:1058D00008000000003F00000000007088080888F1
:1058E0007000001C222121221C0000E0100808107A
:1058F000E0000000312222110F00000000C0C000B3
:1059000000000000003030000000000000800000B7
:1059100000000000806000000000000080402010B7
:1059200008000001020408102000404040404040B0
:105930004000040404040404040000081020408013
:105940000000002010080402010000704808080848
:10595000F0000000003036010000C030C828E81018
:10596000E0000718272423140B000000C038E000D3
:105970000000203C23020227382008F8888888701D
:105980000000203F202020110E00C0300808080829
:105990003800071820202010080008F80808081010
:1059A000E000203F202020100F0008F88888E80839
:1059B0001000203F20202320180008F88888E808DD
:1059C0001000203F200003000000C0300808083805
:1059D000000007182020221E020008F80800000816
:1059E000F808203F210101213F20000808F808089D
:1059F00000000020203F2020000000000808F808D8
:105A00000800C08080807F00000008F888C0281847
:105A10000800203F20012638200008F80800000078
:105A20000000203F20202020300008F8F800F8F87F
:105A30000800203F003F003F200008F830C0000869
:105A4000F808203F200007183F00E0100808081061
:105A5000E0000F10202020100F0008F808080808A8
:105A6000F000203F210101010000E01008080810AB
:105A7000E0000F18242438504F0008F888888888E0
:105A80007000203F2000030C3020007088080808B8
:105A900038000038202121221C00180808F80808C6
:105AA00018000000203F2000000008F8080000084F
:105AB000F808001F202020201F000878880000C858
:105AC0003808000007380E010000F80800F8000848
:105AD000F800033C0700073C030008186880806852
